{
  "contractName": "BertoCoin",
  "abi": [
    {
      "inputs": [],
      "payable": false,
      "stateMutability": "nonpayable",
      "type": "constructor"
    },
    {
      "constant": true,
      "inputs": [],
      "name": "totalSupply",
      "outputs": [
        {
          "internalType": "uint256",
          "name": "",
          "type": "uint256"
        }
      ],
      "payable": false,
      "stateMutability": "view",
      "type": "function"
    }
  ],
  "bytecode": "0x6080604052348015600f57600080fd5b50620f42406000819055506084806100286000396000f3fe6080604052348015600f57600080fd5b506004361060285760003560e01c806318160ddd14602d575b600080fd5b60336049565b6040518082815260200191505060405180910390f35b6000548156fea265627a7a7231582070a67f287bdb517ef69087c1fa127cd856b4f5d65bed726af4d2efd308c23ea264736f6c63430005100032",
  "source": "pragma solidity >=0.4.22 <0.9.0;\r\n\r\ncontract BertoCoin {\r\n\t// Constructor\r\n\t// Set the total number of tokens\r\n\t// Read the total number of tokens\r\n\tuint256 public totalSupply;\r\n\tconstructor () public {\r\n\t\ttotalSupply = 1000000;\r\n\r\n\t}\r\n}\r\n",
  "sourcePath": "E:/Gregor/Programiranje/bertocoin/contracts/BertoCoin.sol",
  "compiler": {
    "name": "solc",
    "version": "0.5.16+commit.9c3226ce.Emscripten.clang"
  },
  "schemaVersion": "3.3.3",
  "updatedAt": "2021-01-21T18:45:24.617Z",
  "networkType": "ethereum",
  "devdoc": {
    "methods": {}
  },
  "userdoc": {
    "methods": {}
  }
}